:020000020000FC
:040000000C946500F7
:04003C000C94A80078
:10008C009080F8829299B0A4F9C00FEF0ABB04BB20
:10009C000EEB0BBB0FEF01BB02BB0CE701BF0DE07E
:1000AC0003BF07B7026007BF7894ECE8F0E0C49098
:1000BC00B49019E0E10FD490E11BC5BA08950FEF8D
:1000CC000DBF00E10EBF0E944B00BC1439F0CD14E3
:1000DC0041F0909B0FC0919B1BC0F7CF909B0AC027
:1000EC00F4CF919B15C0F1CF90990895FDCF9199C4
:1000FC000895FDCFFEF7E8949099E7CFE3953395FB
:10010C00C490C5BA0E949C00909B0E947A00DDCFDF
:10011C00FEF7E8949199D9CFEA953A95C490C5BA6F
:10012C000E949C00919B0E947D00CFCF353018F02F
:10013C00383018F004C09EEB9BBB9DEB9BBB9BE740
:0C014C009BBB08952FB72FBF6894189537
:00000001FF
