S013000050726F6A65637430325F432E7372656336
S113000086C00000C7C00000D4C00000E1C00000EA
S1130010EEC00000FBC0000008C1000096C0000054
S113002094C0000092C0000090C000008EC0000088
S11300308CC000008AC0000088C000004AC10000D3
S113004084C0000082C0000080C000007EC00000A8
S11300507CC000007AC0000078C0000076C00000B8
S113006074C0000072C0000070C000006EC00000C8
S11300706CC000006AC0000068C0000066C00000D8
S113008064C0000062C0000060C000000763423624
S1130090B79BD8A71A39685618AEBAAB558C1D3C15
S11300A0B7CC5763BD6DEDFD753EF6177231BF00D9
S11300B00000803F08000000BE922449123EABAA13
S11300C0AA2ABECDCCCC4C3E00000080BEABAAAA6E
S11300D0AA3E00000000BF000000803F00000000B6
S11300E000084178D3BB4387D1133D190E3CC3BDEF
S11300F04282AD2B3E68EC8276BED98FE1A93E4C9C
S113010080EFFFBE01C4FF7F3F0000000000112408
S11301101FBECFEFD0E1DEBFCDBF11E0A0E0B1E064
S1130120E8E5F2E100E00BBF02C007900D92AE30AB
S1130130B107D9F721E0AEE0B1E001C01D92A832C9
S1130140B207E1F7A2D10C942A095ACF80EC81BB03
S11301508FEF84BB80931F0180931C018093100157
S113016080EE87BB80E288BB8AEA80936A008AE0DB
S11301708ABF8FE389BF8DE481BF8FE083BF87B7D8
S1130180826087BF13BC83E685BD17B887E886B94C
S1130190789408951F920F920FB60F9211248F93A3
S11301A081E080931D018F910F900FBE0F901F90DF
S11301B018951F920F920FB60F9211248F9382E01D
S11301C080931D018F910F900FBE0F901F90189573
S11301D01F920F920FB60F9211248F9383E0809396
S11301E01D018F910F900FBE0F901F9018951F92B5
S11301F00F920FB60F9211248F9384E080931D0108
S11302008F910F900FBE0F901F9018951F920F9211
S11302100FB60F9211248F9381E080930E018F917A
S11302200F900FBE0F901F9018951F920F920FB64C
S11302300F92112410920E010F900FBE0F901F9079
S11302401895C59B0EC088B3806688BB2FEF89E6DE
S113025098E1215080409040E1F700C00000C5982B
S1130260089588B3806688BB2FEF89E698E1215012
S113027080409040E1F700C00000C698089580ECEB
S113028082BB80911F0185BB8FE99FE00197F1F745
S113029000C0000080E882BB80911C0185BB8FE90F
S11302A09FE00197F1F700C0000080E482BB8091D9
S11302B01E01882349F08091100185BB8FE99FE0DE
S11302C00197F1F700C0000012BA80911A0185BBB2
S11302D008951F920F920FB60F9211240BB60F922E
S11302E02F933F936F937F938F939F93AF93BF937A
S11302F0EF93FF93C4DF81E080931101FF91EF91AD
S1130300BF91AF919F918F917F916F913F912F9169
S11303100F900BBE0F900FBE0F901F9018952F9249
S11303203F924F925F926F927F928F929F92AF9281
S1130330BF92CF92DF92EF92FF920F931F93CF93CE
S1130340DF93CDB7DEB72A970FB6F894DEBF0FBEA2
S1130350CDBF422E532E4D835E83862E79878A87A6
S1130360992EA0E057D709F473C0612C712C18861C
S11303701F820F2EFAE0AF2EF02DB12CC12CD12C00
S1130380E12CF12C00E010E0242D352D4D815E810F
S1130390682D79858A85992D42D6222E332E242DD7
S11303A0352D4D815E81682D79858A85992D39D6C3
S11303B0C22ED32EB42EA52EE62EF72E082F192FDB
S11303C0422E532E4D835E83862E79878A87992EFB
S11303D0B301072C000C880B990B52D39B01AC0181
S11303E060E070E080E090E43AD469837A838B83A0
S11303F09C83B101330C880B990B42D329813A8138
S11304004B815C81C9D369837A838B839C832F81DD
S11304103885B901330F880B990B32D39B01AC019A
S113042069817A818B819C8194D2F7D278876F839A
S11304303FEF631A730A2C2D3D2D4B2D5A2D6E2D33
S11304407F2D802F912FA0E0E5D609F092CF02C036
S113045018861F828F8198852A960FB6F894DEBF7E
S11304600FBECDBFDF91CF911F910F91FF90EF9001
S1130470DF90CF90BF90AF909F908F907F906F90C0
S11304805F904F903F902F900895CF93DF9300D0CB
S11304901F92CDB7DEB75ADE0F2EF2EC2F2EF02DC1
S11304A064C020E920931A0180911D018230D9F0A3
S11304B018F4813039F04DC0833031F1843009F4BF
S11304C03FC047C082E980931F0184EA80931C01E6
S11304D080910F01813019F48FEB8093100189E131
S11304E080931E0136C0A0ECA0931F0128EF209337
S11304F01C0180910F01813019F48FEB809310015E
S1130500A6E4A0931E0125C080911101882309F15E
S113051010921101809110018F3F59F480910F01C5
S1130520811107C02FEB2093100181E080930F010C
S113053005C0AFEFA093100110920F0182DE09C035
S11305402FEF20931F0120931C0120931001109280
S11305501E0110921D0180911E01AFEFA89FC001E2
S1130560112464E670E048D563BD80910E018823B0
S113057009F497CF80910E018130B9F720921A01C6
S113058080910F01813019F421E020931B01842F05
S113059090E0982F8827850F911DE92FEE0FEE0B21
S11305A0282F392F4E2F5E2F6E2F7E2F8E2F9E2FAA
S11305B0B6DEFC011F2F110F110B80932001F09365
S11305C0210110932201109323011093240110930D
S11305D02501109326011093270180931201F093B3
S11305E01301109314011093150110931601109325
S11305F0170110931801109319019B7F892B31F473
S113060080E780931F0180931C0158C12E2F3F2F38
S1130610412F512F612F712F812F912F213EA1E066
S11306203A0741055105610571058105910511F0F0
S11306300CF06DC021EE31E040E050E060E070E08D
S113064080E090E0AE2EBF2EC12ED12EE12EF12EF1
S1130650012FD7D50F2EF1EEAF2EF02DBB24B3947E
S1130660C12CD12CE12CF12C00E010E0DAD402E012
S1130670A6D5722E832E942E5983B62FA72FF82F2A
S1130680E92F9DD5A22EB32EC42ED52EE62EF72EFD
S1130690082F192F272D382D492D59816B2F7A2F8B
S11306A08F2F9E2FA5D5722E832E942E5983B62F6D
S11306B0A72FF82FE92F02E082D5A22EB32EC42E45
S11306C0D52EE62EF72E082F192F272D382D492D3C
S11306D059816B2F7A2F8F2F9E2F8AD52093120149
S11306E03093130140931401509315016093160144
S11306F070931701809318019093190180911B0145
S1130700811101C09EDD21E020931B018FC02E2F9B
S11307103F2F412F512F612F712F812F912F2E3178
S1130720A2E03A074105510561057105810591056E
S113073009F08CF41092120110921301109214011A
S113074010921501109216011092170110921801BF
S1130750109219016BC02E2F3F2F412F512F612F63
S1130760712F812F912F2E51324041095109610976
S11307707109810991090F2EF1EEAF2EF02DBB24E2
S1130780B394C12CD12CE12CF12C00E010E049D41D
S113079002E015D5722E832E942E5983B62FA72FDF
S11307A0F82FE92F0CD5A22EB32EC42ED52EE62E6B
S11307B0F72E082F192F272D382D492D59816B2FEE
S11307C07A2F8F2F9E2F14D5722E832E942E598319
S11307D0B62FA72FF82FE92F02E0F1D4A22EB32EC3
S11307E0C42ED52EE62EF72E082F192F272D382D9F
S11307F0492D59816B2F7A2F8F2F9E2FF9D4209357
S11308001201309313014093140150931501609326
S11308101601709317018093180190931901809128
S11308201B01813009F40DDD10921B01309012017F
S113083040901301509014016090150170901601BE
S1130840209117012983809118018A83A0911901AD
S1130850AB830F2EFAE0AF2EF02DB12CC12CD12C8E
S1130860E12CF12C00E010E0232D342D452D562DE4
S1130870672D79819A2FD3D3822E932EF401E050E1
S1130880FF4F808180931F010F2EFAE0AF2EF02DD1
S1130890B12CC12CD12CE12CF12C232D342D452D40
S11308A0562D672D79818A819B81BBD3822E932E0D
S11308B0F401E050FF4F808180931C01A09020013F
S11308C0B0902101C0902201D0902301E090240136
S11308D0F0902501E0912601109127012A2D3B2D4E
S11308E04C2D5D2D6E2D7F2D8E2F912F04E067D41E
S11308F00E2F87D4722E832E942E5983B62FA72FB2
S1130900F82FE92F04E05BD4A22EB32EC42ED52EEB
S1130910E62EF72E082F192F272D382D492D598112
S11309206B2F7A2F8F2F9E2F63D40F2EF4E6AF2ECA
S1130930F02DB12CC12CD12CE12CF12C00E010E0D5
S113094070D323BD80910E01813009F417CE0DCEF2
S11309505058BB27AA270ED0E5C0D6D030F0DBD044
S113096020F031F49F3F11F41EF4CBC00EF4E09557
S1130970E7FBC1C0E92FE7D080F3BA17620773071A
S11309808407950718F071F49EF5FFC00EF4E09506
S11309900B2EBA2FA02D0B01B90190010C01CA0135
S11309A0A0011124FF27591B99F0593F50F4503EE0
S11309B068F11A16F040A22F232F342F4427585FD2
S11309C0F3CF469537952795A795F0405395C9F7EA
S11309D07EF41F16BA0B620B730B840BBAF09150A2
S11309E0A1F0FF0FBB1F661F771F881FC2F70EC041
S11309F0BA0F621F731F841F48F487957795679514
S1130A00B795F7959E3F08F0B3CF9395880F08F0FC
S1130A109927EE0F97958795089504D06894B1119E
S1130A20B5C0089598D088F09F5790F0B92F9927B2
S1130A30B751A0F0D1F0660F771F881F991F1AF0E5
S1130A40BA95C9F712C0B13081F09FD0B1E00895D2
S1130A509CC0672F782F8827B85F39F0B93FCCF353
S1130A60869577956795B395D9F73EF490958095DB
S1130A70709561957F4F8F4F9F4F0895E89409C0FB
S1130A8097FB3EF490958095709561957F4F8F4FBD
S1130A909F4F9923A9F0F92F96E9BB279395F695D3
S1130AA0879577956795B795F111F8CFFAF4BB0F51
S1130AB011F460FF1BC06F5F7F4F8F4F9F4F16C0B5
S1130AC0882311F096E911C0772321F09EE8872F3F
S1130AD0762F05C0662371F096E8862F70E060E0FB
S1130AE02AF09A95660F771F881FDAF7880F969574
S1130AF0879597F9089597F99F6780E870E060E01B
S1130B0008959FEF80EC089500240A9416161706A2
S1130B1018060906089500240A94121613061406EA
S1130B2005060895092E0394000C11F4882352F04D
S1130B30BB0F40F4BF2B11F460FF04C06F5F7F4F05
S1130B408F4F9F4F089557FD9058440F551F59F0EC
S1130B505F3F71F04795880F97FB991F61F09F3FA6
S1130B6079F087950895121613061406551FF2CFCF
S1130B704695F1DF08C0161617061806991FF1CF1F
S1130B8086957105610508940895E894BB27662746
S1130B907727CB0197F908950BD0C4CFB5DF28F0A0
S1130BA0BADF18F0952309F0A6CFABCF1124EECF0E
S1130BB0CADFA0F3959FD1F3950F50E0551F629FB4
S1130BC0F001729FBB27F00DB11D639FAA27F00DA2
S1130BD0B11DAA1F649F6627B00DA11D661F829FC9
S1130BE02227B00DA11D621F739FB00DA11D621FAE
S1130BF0839FA00D611D221F749F3327A00D611DCB
S1130C00231F849F600D211D822F762F6A2F1124AC
S1130C109F5750408AF0E1F088234AF0EE0FFF1FFF
S1130C20BB1F661F771F881F91505040A9F79E3F36
S1130C30510570F060CFAACF5F3FECF3983EDCF330
S1130C40869577956795B795F795E7959F5FC1F773
S1130C50FE2B880F911D9695879597F90895FA01B3
S1130C60EE0FFF1F30962105310599F161157105CD
S1130C7061F48038BFE39B0749F16894903881059B
S1130C8061F08038BFEF9B0741F0992342F5FF3FA5
S1130C90E1053105210511F1E8940894E795D9019E
S1130CA0AA2329F4AB2FBE2FF85FD0F310C0FF5F47
S1130CB070F4A695E0F7F73950F019F0FF3A38F4DC
S1130CC09F779F930CD00F9007FC905808953EF0A7
S1130CD018CF60E070E080E89FE308954FE79F77C6
S1130CE05F934F933F932F939ED02F913F914F91BA
S1130CF05F9152DF05C019F40EF0FDCE46CF01CF4F
S1130D002ADFC8F39638C0F707F80F92E8942BE36C
S1130D103AEA48EB5FE74EDF0F920F920F924DB71E
S1130D205EB70F92C0D0ECE8F0E016D04F915F911F
S1130D30EF91FF91E595EE1FFF1F49F0FE57E06824
S1130D404427EE0F441FFA95E1F74195550B32D035
S1130D500F9007FE26C00895DF93CF931F930F9340
S1130D60FF92EF92DF927B018C01689405C0DA2E2A
S1130D70EF011EDFFE01E894A5912591359145917F
S1130D805591AEF3EF01F6DDFE019701A801DA9467
S1130D9079F7DF90EF90FF900F911F91CF91DF9142
S1130DA008959B01AC0160E070E080E89FE3AEC071
S1130DB0A2CE14C1D0DEE8F39923D9F3940F511DC8
S1130DC0BBF39150504094F059F0882332F0660FF1
S1130DD0771F881F91505040C1F79E3F510544F73B
S1130DE0880F911D9695879597F908955F3FACF00C
S1130DF0983E9CF0BB27869577956795B79508F440
S1130E00B1609395C1F7BB0F58F711F460FFE8CFB9
S1130E106F5F7F4F8F4F9F4FE3CFB8CE0EF0DEC092
S1130E2070CE689468CE97DEC8F39923D1F3C6F3E5
S1130E30DF93CF931F930F93FF92C92FDD2788234E
S1130E402AF02197660F771F881FDAF720E030E039
S1130E5040E85FEB9FE3883920F0803E30F0219634
S1130E608F7777DDE4EBF0E003C073DDE1EEF0E0D3
S1130E7073DF8B01BE01EC01FB2E6F577109759571
S1130E80771F880B990BFCDD28E132E741E35FE330
S1130E908FDEAF2D9801AE01FF900F911F91CF917E
S1130EA0DF9168DD3FCEFA01DC01AA0FBB1F9B0175
S1130EB0AC01BF5728F422273327442750781FC09A
S1130EC0B75188F4AB2F0024469537952795011C1C
S1130ED0A395D2F3002069F0220F331F441FB3956A
S1130EE0DAF30DD035CD61307105A0E88A07B94633
S1130EF030F49B01AC0166277727882790783096D9
S1130F0021F0208331834283538308950CD00ACE89
S1130F1002DE40F0F9DD30F021F45F3F19F0EBCD53
S1130F20511134CEEECD0FDE98F39923C9F3552336
S1130F30B1F3951B550BBB27AA27621773078407C8
S1130F4038F09F5F5F4F220F331F441FAA1FA9F37E
S1130F5033D00E2E3AF0E0E830D091505040E69570
S1130F60001CCAF729D0FE2F27D0660F771F881FD1
S1130F70BB1F261737074807AB07B0E809F0BB0BC0
S1130F80802DBF01FF2793585F4F2AF09E3F5105E4
S1130F9068F0B1CDFBCD5F3FECF3983EDCF3869572
S1130FA077956795B795F7959F5FC9F7880F911D5A
S1130FB09695879597F90895E1E0660F771F881F46
S1130FC0BB1F621773078407BA0720F0621B730BF9
S1130FD0840BBA0BEE1F88F7E09508959F3F31F01C
S1130FE0915020F4879577956795B795880F911D53
S1130FF09695879597F9089597FB072E16F4009414
S113100006D077FD08D012D107FC05D03EF49095A8
S113101081959F4F0895709561957F4F08956894C9
S113102001C0E894F92FF12B0AF027C0A0E0B0E04A
S1131030EBE1F8E093C0092E05941AF479D011235A
S113104092F4F0E80F26FFEFE094F09400951095E9
S1131050B094C094D094A194BF0ACF0ADF0AEF0AD7
S1131060FF0A0F0B1F0B13D007FC62D0CDB7DEB7FE
S1131070ECE090C0689401C0E8948F929F92CF9363
S1131080DF9305D0DF91CF919F908F9008958824AE
S11310909924F401E401B0E49F93AA279A158B04E0
S11310A09C04ED05FE05CF05D007A10798F4AD2FEC
S11310B0DC2FCF2FFE2FE92D982C892E982F872FE8
S11310C0762F652F542F432F322F2227B85031F714
S11310D0BF9127C01B2EBF91BB27220F331F441F74
S11310E0551F661F771F881F991F881C991CEE1FA8
S11310F0FF1FCC1FDD1FAA1FBB1F8A149B04EC0516
S1131100FD05CE05DF05A007B10748F08A189B0846
S1131110EC09FD09CE09DF09A00BB10B21601A947B
S1131120E1F62EF49401AF01BE01CD01000C089547
S11311306095709580959095309540955095219542
S11311403F4F4F4F5F4F6F4F7F4F8F4F9F4F0895CC
S11311502F923F924F925F926F927F928F929F92C3
S1131160AF92BF92CF92DF92EF92FF920F931F93B1
S1131170CF93DF93CDB7DEB7CA1BDB0B0FB6F89462
S1131180DEBF0FBECDBF09942A88398848885F84A2
S11311906E847D848C849B84AA84B984C884DF8013
S11311A0EE80FD800C811B81AA81B981CE0FD11DF7
S11311B00FB6F894DEBF0FBECDBFED0108950F93B7
S11311C0083090F0982F872F762F652F542F432FB8
S11311D0322F22270850F4CF220F331F441F551FEC
S11311E0661F771F881F991F0A95B2F70F910895FC
S11311F02A0D3B1D4C1D5D1D6E1D7F1D801F911F03
S113120008952A193B094C095D096E097F09800B71
S1131210910B08950024A7FD00942A17300540057A
S1131220500560057005800590050895AA1BBB1B39
S113123051E107C0AA1FBB1FA617B70710F0A61BD2
S1131240B70B881F991F5A95A9F780959095BC01F3
S10B1250CD010895F894FFCFCD
S1111258C0F9A4B0999282F88090BFFF700094
S9030000FC
