:1000000045C000009CC00000A9C00000B6C00000B0
:10001000C3C0000058C0000056C0000054C000001B
:1000200052C0000050C000004EC000004CC0000094
:100030004AC0000048C0000046C0000014C20000D2
:1000400042C0000040C000003EC000003CC00000B4
:100050003AC0000038C0000036C0000034C00000C4
:1000600032C0000030C000002EC000002CC00000D4
:100070002AC0000028C0000026C0000024C00000E4
:1000800022C0000020C000001EC0000011241FBEBE
:10009000CFEFD0E1DEBFCDBF11E0A0E0B1E0EAE2FA
:1000A000F5E000E00BBF02C007900D92AE30B10743
:1000B000D9F721E0AEE0B1E001C01D92AD31B20749
:1000C000E1F7A5D130C29CCF00E10EBF0FEF0DBF0D
:1000D0000F931F932F93369A00B10034A9F714B1F0
:1000E00025B110931B0120931C010F911F912F919B
:1000F000089580EC81BB8FEF84BB109261008093E8
:100100001501809316018093170180EE87BB80E272
:1001100088BB8AEA80936A008AE08ABF8FE389BF3E
:100120008DE481BF8FE083BF87B7826087BF13BC38
:1001300083E685BD17B887E886B9789408951F923D
:100140000F920FB60F9211248F9381E080931A01C2
:100150008F910F900FBE0F901F9018951F920F92C6
:100160000FB60F9211248F9382E080931A018F9122
:100170000F900FBE0F901F9018951F920F920FB601
:100180000F9211248F9383E080931A018F910F9027
:100190000FBE0F901F9018951F920F920FB60F92DF
:1001A00011248F9384E080931A018F910F900FBEDA
:1001B0000F901F901895C59B10C088B3806688BBB0
:1001C0002FEF89E698E1215080409040E1F700C090
:1001D000000088B38F7D88BB089588B3806688BB94
:1001E0002FEF89E698E1215080409040E1F700C070
:1001F000000088B38F7B88BB089581EA8093140147
:1002000080B38F6D8F3D09F469D080911A018230DF
:10021000D9F018F4813039F054C0833031F1843092
:1002200009F446C04EC082E98093150184EA8093A8
:10023000160180911801813019F48FEB809317011A
:1002400089E1809313013DC080EC8093150188EF14
:100250008093160180911801813019F48FEB8093FF
:10026000170186E4809313012CC080911901882323
:1002700041F110921901809117018F3F31F4809163
:100280001801882321F080E003C080E001C081E0F4
:10029000882339F08FEB8093170181E08093180158
:1002A00005C08FEF809317011092180184DF09C0F9
:1002B0008FEF8093150180931601809317011092A0
:1002C000130110921A01809113012FEF829FC00138
:1002D000112464E670E0F1D063BD8FCF82EC80938F
:1002E000140180B38F6E8F3E09F487DFEDDE8091BD
:1002F0001801813011F48093120180911C0190E06B
:10030000982F882720911B01820F911D9093110136
:100310008093100190930F0180930E01009721F0BC
:10032000811524E0920749F480E7809315018093BA
:10033000160184E6809313015FC0823E21E092079C
:10034000D0F421EE31E0281B390BA1E2B2E0C8D095
:10035000969587959695879594E6899F802D11248B
:100360008093130180911201811101C024DF81E08B
:10037000809312011EC08F3122E0920718F4109270
:10038000130117C09C012E513240A1E2B2E0A8D067
:10039000969587959695879594E6899F802D11244B
:1003A0008093130180911201813009F404DF1092CF
:1003B0001201A0911301EDECAE9F812D11248695C1
:1003C00086958695880F982F990F990F890FA81BEE
:1003D000B0E0A050BF4F8C91809315018091130124
:1003E0008E9FE12D1124E695E695E695F0E0E0502C
:1003F000FF4F808180931601809113012FEF829F20
:10040000C001112464E670E058D063BD67CF71DE8F
:10041000F4DE80EC82BB8091150185BB8FE99FE003
:100420000197F1F700C0000080E882BB80911601BF
:1004300085BB8FE99FE00197F1F700C0000080E4E1
:1004400082BB80911301882349F08091170185BBFD
:100450008FE99FE00197F1F700C0000012BA809188
:10046000140185BB08951F920F920FB60F921124AD
:100470000BB60F922F933F934F935F936F937F939E
:100480008F939F93AF93BF93EF93FF93C2DF81E06E
:1004900080931901FF91EF91BF91AF919F918F913F
:1004A0007F916F915F914F913F912F910F900BBE74
:1004B0000F900FBE0F901F90189597FB072E16F404
:1004C000009406D077FD08D01AD007FC05D03EF482
:1004D000909581959F4F0895709561957F4F0895F0
:1004E000A29FB001B39FC001A39F700D811D112475
:1004F000911DB29F700D811D1124911D0895AA1B9D
:10050000BB1B51E107C0AA1FBB1FA617B70710F0FE
:10051000A61BB70B881F991F5A95A9F78095909530
:0A052000BC01CD010895F894FFCF4F
:0E052A00C0F9A4B0999282F88090BFFF7000D3
:00000001FF
