:1000000045C000007FC000008CC0000099C0000007
:10001000A6C0000058C0000056C0000054C0000038
:1000200052C0000050C000004EC000004CC0000094
:100030004AC0000048C0000046C0000055C1000092
:1000400042C0000040C000003EC000003CC00000B4
:100050003AC0000038C0000036C0000034C00000C4
:1000600032C0000030C000002EC000002CC00000D4
:100070002AC0000028C0000026C0000024C00000E4
:1000800022C0000020C000001EC0000011241FBEBE
:10009000CFEFD0E1DEBFCDBF11E0A0E0B1E0EEE8F0
:1000A000F3E000E00BBF02C007900D92A030B10753
:1000B000D9F721E0A0E0B1E001C01D92A730B2075E
:1000C000E1F77AD062C19CCF80EC81BB8FEF84BB1B
:1000D00080930601809303018093010180EE87BB2A
:1000E00080E288BB8AEA80936A008FE089BF9DE442
:1000F00091BF83BF87B7826087BF13BC83E685BD8E
:10010000789408951F920F920FB60F9211248F9337
:1001100081E0809304018F910F900FBE0F901F908C
:1001200018951F920F920FB60F9211248F9382E0B1
:10013000809304018F910F900FBE0F901F90189520
:100140001F920F920FB60F9211248F9383E080932A
:1001500004018F910F900FBE0F901F9018951F9262
:100160000F920FB60F9211248F9384E080930401B5
:100170008F910F900FBE0F901F901895C59B0EC0CA
:1001800088B3806688BB2FEF89E698E121508040D4
:100190009040E1F700C00000C598089588B38066DC
:1001A00088BB2FEF89E698E1215080409040E1F72D
:1001B00000C00000C698089587DF0F2EF0ECBF2E18
:1001C000F02D0F2EF8EFCF2EF02D0F2EF6E4DF2EB0
:1001D000F02D0F2EFFEBAF2EF02DCFEF992493943F
:1001E0000F2EF2E9EF2EF02D0F2EF4EAFF2EF02D58
:1001F000D9E104E610E0809104018230B1F018F4F6
:10020000813031F040C08330E9F08430A1F13BC04F
:10021000E0920601F092030180910001813011F417
:10022000A0920101D09305012EC0B0920601C092A8
:10023000030180910001813011F4A0920101D0925C
:10024000050121C0809102018823E9F0109202018A
:10025000809101018F3F49F480910001811105C017
:10026000A09201019092000104C0C093010110927C
:10027000000184DF08C0C0930601C0930301C0934E
:100280000101109205011092040180910501C89F9F
:10029000C0011124B80152D063BDADCF80EC82BB48
:1002A0008091060185BB8FE99FE00197F1F700C0BF
:1002B000000080E882BB8091030185BB8FE99FE04D
:1002C0000197F1F700C0000080E482BB8091050136
:1002D000882349F08091010185BB8FE99FE0019758
:1002E000F1F700C0000008951F920F920FB60F9211
:1002F00011240BB60F922F933F934F935F936F93FD
:100300007F938F939F93AF93BF93EF93FF93C6DF3A
:1003100081E080930201FF91EF91BF91AF919F9196
:100320008F917F916F915F914F913F912F910F909E
:100330000BBE0F900FBE0F901F90189597FB072EC6
:1003400016F4009406D077FD08D00BD007FC05D03A
:100350003EF4909581959F4F0895709561957F4FDC
:100360000895AA1BBB1B51E107C0AA1FBB1FA617FC
:10037000B70710F0A61BB70B881F991F5A95A9F74E
:0E03800080959095BC01CD010895F894FFCFB3
:00000001FF
