:020000020000FC
:040000000C946100FB
:04003C000C9484009C
:10008C00F9A4B0999282F88090000FEF04BB00ECB9
:10009C0001BB0FEF02BB0BE901BF12E382E30FE0E0
:1000AC0003BF07B7026007BF7894ECE8F0E04E2F6F
:1000BC00C490C5BA08950FEF0DBF00E10EBF0E94AA
:1000CC004B00829B0E947B00839B0E947E00849B42
:1000DC0001C0F7CFFEF7E894E395C490C7FE0E94E9
:1000EC008100C5BA859BEDCFF5CF12E082E0089573
:1000FC0012E382E30895E42FC49008952FB71A9564
:0E010C0021F4182F2FBF689418952FBF189557
:00000001FF
