S016000046756E63696F6E616D656E746F332E7372656385
S113000045C000008EC000009BC00000A8C00000D6
S1130010B5C0000058C0000056C0000054C0000025
S113002052C0000050C000004EC000004CC0000090
S11300304AC0000048C0000046C00000E6C00000FE
S113004042C0000040C000005AC000003CC0000094
S11300503AC0000038C0000036C0000034C00000C0
S113006032C0000030C000002EC000002CC00000D0
S11300702AC0000028C0000026C0000024C00000E0
S113008022C0000020C000001EC0000011241FBEBA
S1130090CFEFD0E1DEBFCDBF11E0A0E0B1E0EEE5EF
S11300A0FBE000E00BBF02C007900D92A036B10741
S11300B0D9F721E0A0E6B1E001C01D92A939B20749
S11300C0E1F7E7D04AC59CCF80EC81BB8FEF84BBBE
S11300D080EE87BB80E288BB8AEA80936A008FE067
S11300E089BF9DE491BF83BF87B7826087BF13BC7C
S11300F083E685BD789481E08093940108951F92EE
S11301000F920FB60F9211248F938CB180939201AA
S113011081E0809393018F910F900FBE0F901F90F9
S113012018951F920F920FB60F9211248F9381E0AE
S1130130809398018F910F900FBE0F901F90189588
S11301401F920F920FB60F9211248F9382E0809327
S113015098018F910F900FBE0F901F9018951F92CA
S11301600F920FB60F9211248F9383E0809398011E
S11301708F910F900FBE0F901F9018951F920F92A2
S11301800FB60F9211248F9384E0809398018F917E
S11301900F900FBE0F901F901895C59B10C088B389
S11301A0806688BB2FEF89E698E12150804090401B
S11301B0E1F700C0000088B38F7D88BB089588B341
S11301C0806688BB2FEF89E698E1215080409040FB
S11301D0E1F700C0000088B38F7B88BB089582B329
S11301E0805C82BBE2B3F0E00E2EEF2F000CEE1F1A
S11301F0FF0B000CEE1FFF1FE050FF4FE081F0E00B
S1130200E05BFE4F808185BB08951F920F920FB66D
S11302100F9211240BB60F922F933F934F935F933A
S11302206F937F938F939F93AF93BF93EF93FF93BA
S1130230D6DF81E080939601FF91EF91BF91AF915A
S11302409F918F917F916F915F914F913F912F91EA
S11302500F900BBE0F900FBE0F901F901895109229
S113026090008FEC89B91BB888E98AB986E080933D
S1130270950078940895AC0190E0FA01E90FF11D1E
S11302802081222329F05D9BFECF2CB99F5FF5CFFF
S113029008951ADFE4DF809193018130C1F4109254
S11302A09301809192011F928F9384E091E09F9338
S11302B08F9380E691E09F938F9374D180E691E0D1
S11302C0DADF0F900F900F900F900F900F908091A6
S11302D097018111CBC080919201893609F43EC007
S11302E028F4823681F0833651F0AEC08D3609F1A0
S11302F0803709F490C08C3609F0A6C046C08EE061
S113030080930301A1C0E0E0F1E082E0818385E015
S113031082838EE0838389E18093950180919501A6
S11303202FEF829FC001112464E670E014D163BDF5
S11303308BC0E0E0F1E087E0818312828EE083836A
S113034086E480939501809195012FEF829FC001EF
S1130350112464E670E0FFD063BD76C0E0E0F1E014
S11303608EE0838380818B3031F48AE080930001B6
S11303701092940106C08BE08093000181E0809389
S113038094011092920109DF5FC080919401811160
S113039020C0C0E6D1E084E1EEE0F1E0DE010190AE
S11303A00D928A95E1F7CE0166DF809195011F9247
S11303B08F9382E291E09F938F93DF93CF93F2D058
S11303C0CE0159DF0F900F900F900F900F900F9068
S11303D01FC0C0E6D1E084E1ECE3F1E0DE0101906E
S11303E00D928A95E1F7CE0146DF809195011F9227
S11303F08F9382E291E09F938F93DF93CF93D2D038
S1130400CE0139DF0F900F900F900F900F900F9047
S11304101092920119C0E0E0F1E08EE083838BE05A
S113042081838283808310929501809195012FEFBF
S1130430829FC001112464E670E08DD063BD809179
S11304409401811101C0A9DE80B38F6E8F3E29F41F
S11304501092000181E08093970180B38F6D8F3DEE
S113046009F035CF82E08093970131CF80919701D5
S1130470813009F010CF809300018091980182307F
S113048001F118F4813039F0F1CF833079F18430FF
S113049009F447C0EBCF10929801E0E0F1E082E06C
S11304A0828385E0838389E180939501809195011E
S11304B02FEF829FC001112464E670E04CD063BD2D
S11304C0D5CF10929801E0E0F1E087E082831382B7
S11304D086E480939501809195012FEF829FC0015E
S11304E0112464E670E037D063BDC0CF1092980148
S11304F080919601813009F0B9CF809101018B3050
S113050031F48AE0809301011092940106C08BE0DB
S11305108093010181E0809394013FDE1092960163
S1130520A5CF10929801E0E0F1E08BE08283838311
S1130530818310929501809195012FEF829FC001D4
S1130540112464E670E007D063BD809194018111A9
S11305508DCF23DE8BCF97FB072E16F4009406D0A5
S113056077FD08D00BD007FC05D03EF4909581951B
S11305709F4F0895709561957F4F0895AA1BBB1BEB
S113058051E107C0AA1FBB1FA617B70710F0A61B8F
S1130590B70B881F991F5A95A9F780959095BC01B0
S11305A0CD0108950F931F93CF93DF93CDB7DEB79B
S11305B02E970FB6F894DEBF0FBECDBF0D891E89EE
S11305C086E08C831A8309838FEF9FE79E838D8354
S11305D0AE01475E5F4F6F89788DCE01019610D0D2
S11305E0EF81F885E00FF11F10822E960FB6F89474
S11305F0DEBF0FBECDBFDF91CF911F910F91089544
S11306002F923F924F925F926F927F928F929F921E
S1130610AF92BF92CF92DF92EF92FF920F931F930C
S1130620CF93DF93CDB7DEB72B970FB6F894DEBF29
S11306300FBECDBF6C017B018A01FC0117821682BB
S1130640838181FFBFC1CE0101963C01F6019381F4
S1130650F70193FD859193FF81917F01882309F42C
S1130660ADC1853239F493FD859193FF81917F016A
S1130670853221F4B60190E0D6D1E8CF912C212C1B
S1130680312CFFE1F315D8F08B3279F038F4803255
S113069079F08332A1F4232D20611DC08D3261F0E5
S11306A0803369F4232D216016C0832D8260382E97
S11306B0E32DE4603E2E2AC0F32DF8601DC037FC04
S11306C02DC020ED280F2A3040F08E32B9F436FCCC
S11306D075C1232D2064322E19C036FE06C08AE06F
S11306E0989E200D1124922E11C0EAE02E9E200D1A
S11306F01124222EF32DF0623F2E08C08C3621F4F3
S1130700832D8068382E02C0883641F4F70193FDAA
S1130710859193FF81917F018111B3CF982F9F7DA4
S11307209554933028F40C5F1F4F9FE399830DC0B9
S1130730833631F0833771F0833509F055C020C01A
S1130740F801808189830E5F1F4F88248394912C44
S1130750530112C02801F2E04F0E511CF801A08091
S1130760B18036FE03C0692D70E002C06FEF7FEFE9
S1130770C5014ED14C018201F32DFF773F2E15C0E8
S1130780280122E0420E511CF801A080B18036FEFF
S113079003C0692D70E002C06FEF7FEFC5012DD15A
S11307A04C01F32DF0683F2E820133FC19C0822DD9
S11307B090E088169906A0F4B60180E290E033D167
S11307C02A94F5CFF50137FC859137FE81915F01BD
S11307D0B60190E028D121102A9421E0821A9108D0
S11307E08114910479F7E1C0843611F0893639F522
S11307F0F80137FE07C060817181828193810C5FAB
S11308001F4F08C060817181072E000C880B990B63
S11308100E5F1F4FF32DFF763F2E97FF09C0909573
S11308208095709561957F4F8F4F9F4FF0683F2E55
S11308302AE030E0A30133D1882E861844C08537DE
S113084031F4232D2F7EB22E2AE030E025C0932DE3
S1130850997FB92E8F36C1F018F4883579F0AEC07F
S1130860803719F0883721F0A9C0E92FE061BE2E46
S1130870B4FE0DC0FB2DF460BF2E09C034FE0AC0C7
S1130880292F2660B22E06C028E030E005C020E102
S113089030E002C020E132E0F801B7FE07C0608119
S11308A07181828193810C5F1F4F06C060817181C9
S11308B080E090E00E5F1F4FA301F1D0882E8618D0
S11308C0FB2DFF773F2E36FE0DC0232D2E7FA22E4B
S11308D0891458F434FE0BC032FC09C0832D8E7E7B
S11308E0A82E05C0B82CA32C03C0B82C01C0B92C69
S11308F0A4FE0FC0FE01E80DF11D8081803321F4B8
S11309009A2D997EA92E09C0A2FE06C0B394B39471
S113091004C08A2D867809F0B394A3FC10C0A0FE0D
S113092006C0B21480F4280C922C9B180DC0B2148B
S113093058F4B60180E290E076D0B394F8CFB214C4
S113094018F42B1802C0982C212CA4FE0FC0B60159
S113095080E390E068D0A2FE16C0A1FC03C088E743
S113096090E002C088E590E0B6010CC08A2D86783C
S113097051F0A1FE02C08BE201C080E2A7FC8DE22F
S1130980B60190E050D0891430F4B60180E390E0D1
S11309904AD09A94F8CF8A94F301E80DF11D80812E
S11309A0B60190E040D08110F6CF222009F44ECE5B
S11309B0B60180E290E037D02A94F7CFF601868121
S11309C0978102C08FEF9FEF2B960FB6F894DEBF8E
S11309D00FBECDBFDF91CF911F910F91FF90EF908C
S11309E0DF90CF90BF90AF909F908F907F906F904B
S11309F05F904F903F902F900895FC0105906150B7
S1130A0070400110D8F7809590958E0F9F1F089520
S1130A10FC016150704001900110D8F780959095C9
S1130A208E0F9F1F08950F931F93CF93DF93FB01A6
S1130A30238121FD03C08FEF9FEF2CC022FF16C03E
S1130A4046815781248135814217530744F4A0819C
S1130A50B1819D012F5F3F4F318320838C93268189
S1130A6037812F5F3F4F3783268314C08B01EC01FE
S1130A70FB010084F185E02D0995892BE1F6D8016D
S1130A8016968D919C911797019617969C938E9329
S1130A901697CE01DF91CF911F910F910895FA011E
S1130AA0AA27283051F1203181F1E8946F936E7FA9
S1130AB06E5F7F4F8F4F9F4FAF4FB1E03ED0B4E09A
S1130AC03CD0670F781F891F9A1FA11D680F791FDB
S1130AD08A1F911DA11D6A0F711D811D911DA11DEC
S1130AE020D009F468943F912AE0269F11243019FC
S1130AF0305D3193DEF6CF010895462F4770405D97
S1130B004193B3E00FD0C9F7F6CF462F4F70405D45
S1130B104A3318F0495D31FD4052419302D0A9F7A0
S1130B20EACFB4E0A6959795879577956795BA959A
S1130B30C9F700976105710508959B01AC010A2E60
S1130B4006945795479537952795BA95C9F7620F37
S1110B50731F841F951FA01D0895F894FFCFF6
S1130B5E0B0B0B0B7465636C613A25630A005365CA
S1130B6E6E7469646F3A206E6567617469766F0D91
S1130B7E0A0056656C6F63696461646520646F2056
S1130B8E6D6F746F723A2025640D0A0053656E748E
S1130B9E69646F3A20706F73697469766F0D0A0019
S1130BAEC0F9A4B0999282F88090BFFF1103C600D9
S9030000FC
