:1000000045C00000B2C00000BFC00000CCC000006E
:10001000D9C0000058C0000056C0000054C0000005
:1000200052C0000050C000004EC000004CC0000094
:100030004AC0000048C0000046C000001EC10000C9
:1000400042C0000040C0000068C000003CC000008A
:100050003AC0000038C0000036C0000034C00000C4
:1000600032C0000030C000002EC000002CC00000D4
:100070002AC0000028C0000026C0000024C00000E4
:1000800022C0000020C000001EC0000011241FBEBE
:10009000CFEFD0E1DEBFCDBF11E0A0E0B1E0E6E8F8
:1000A000FCE000E00BBF02C007900D92A635B1073F
:1000B000D9F721E0A6E5B1E001C01D92A038B20752
:1000C000E1F75BD2DEC59CCF90EC91BB8FEF84BB98
:1000D00080937A0180937B0180937C0180EE87BBC3
:1000E00080E288BB92B98AEA80936A008FE089BF78
:1000F0009DE491BF83BF87B7826087BF13BC83E64F
:1001000085BD109290008FEC89B91BB888E98AB937
:1001100086E080939500789408951F920F920FB611
:100120000F9211240BB60F928F93EF93FF938BB125
:10013000E4E7F1E081838181887129F0E6E7F1E06D
:100140008081826080838CB180937401E6E7F1E066
:10015000808181608083FF91EF918F910F900BBE22
:100160000F900FBE0F901F9018951F920F920FB611
:100170000F9211248F9381E080937F018F910F90D4
:100180000FBE0F901F9018951F920F920FB60F92EF
:1001900011248F9382E080937F018F910F900FBE87
:1001A0000F901F9018951F920F920FB60F92112467
:1001B0008F9383E080937F018F910F900FBE0F90FC
:1001C0001F9018951F920F920FB60F9211248F93C4
:1001D00084E080937F018F910F900FBE0F901F904E
:1001E0001895C59B10C088B3806688BB2FEF89E641
:1001F00098E1215080409040E1F700C0000088B3B2
:100200008F7D88BB089588B3806688BB2FEF89E611
:1002100098E1215080409040E1F700C0000088B391
:100220008F7B88BB089580EC82BB80917A0185BB6F
:100230008FE99FE00197F1F700C0000080E882BBE2
:1002400080917B0185BB8FE99FE00197F1F700C0AA
:10025000000080E482BB80917801882349F080917E
:100260007C0185BB8FE99FE00197F1F700C000009A
:1002700012BA8091790185BB08951F920F920FB633
:100280000F9211240BB60F922F933F934F935F93CE
:100290006F937F938F939F93AF93BF93EF93FF934E
:1002A000C2DF81E080937E01FF91EF91BF91AF911A
:1002B0009F918F917F916F915F914F913F912F917E
:1002C0000F900BBE0F900FBE0F901F901895AC01B2
:1002D00090E0FA01E90FF11D2081222329F05D9BB6
:1002E000FECF2CB99F5FF5CF0895CF9380917F010A
:1002F000813031F080917F01823021F4C0E003C071
:10030000C0E001C0C1E0CC2309F4CCC086EC8093EE
:1003100079012FEF86E791E0215080409040E1F78E
:1003200000C000008091760180FF1BC080917401A5
:100330001F928F9380E091E09F938F9386E591E0E9
:100340009F938F93C3D186E591E0C1DFE6E7F1E0AB
:1003500080818E7F80830F900F900F900F900F9071
:100360000F908091740190E0A9D18C34910509F42B
:1003700060C03CF48234910561F08934910559F1F3
:1003800081C08D349105B1F08035910509F447C0E5
:1003900079C082E980937A0184EA80937B0180911D
:1003A0007D01813019F48FEB80937C0189E180938A
:1003B000780168C080EC80937A0188EF80937B019C
:1003C00080917D01813019F48FEB80937C0186E46C
:1003D0008093780157C080917E01882309F452C030
:1003E00010927E0180917C018F3F31F480917D01DC
:1003F000882319F0C0E001C0C0E0CC2339F08FEBB6
:1004000080937C0181E080937D0105C08FEF809314
:100410007C0110927D01E5DE1092740133C08FEFF4
:1004200080937A0180937B0180937C011092780104
:1004300029C080917D01813021F48DE28093770184
:1004400003C08BE2809377019091780180917701CE
:100450001F929F931F928F938DE191E09F938F93B3
:1004600086E591E09F938F9331D186E591E02FDF70
:10047000109274018DB79EB708960FB6F8949EBF80
:100480000FBE8DBF809178012FEF829FC001112494
:1004900064E670E0ECD063BDE6E7F1E080818E7F3A
:1004A000808324CFCF9108958091760181FF0EC083
:1004B00088E1EDE3F1E0A6E5B1E001900D928A95C7
:1004C000E1F7E6E7F1E080818D7F8083809176011E
:1004D00080FF1CC0809174011F928F9380E091E097
:1004E0009F938F9386E591E09F938F93EFD086E55E
:1004F00091E0EDDEE6E7F1E080818E7F80830F9072
:100500000F900F900F900F900F90E0CF809174019B
:1005100090E0D4D08334910509F4E7DE8091740132
:1005200090E0CCD08C34910539F580917D018130FB
:1005300021F48DE28093770103C08BE280937701F1
:1005400090917801809177011F929F931F928F93D2
:100550008DE191E09F938F9386E591E09F938F9338
:10056000B5D086E591E0B3DE8DB79EB708960FB69D
:10057000F8949EBF0FBE8DBF0895A6DD2FEF86E7CE
:1005800091E0215080409040E1F700C00000809150
:10059000760180FD89DF81EA8093790180917F0176
:1005A0008230D9F018F4813039F054C0833031F101
:1005B000843009F446C04EC082E980937A0184EA0F
:1005C00080937B0180917D01813019F48FEB8093C2
:1005D0007C0189E1809378013DC080EC80937A01B1
:1005E00088EF80937B0180917D01813019F48FEB3E
:1005F00080937C0186E4809378012CC080917E01F9
:10060000882341F110927E0180917C018F3F31F46B
:1006100080917D01882321F080E003C080E001C04B
:1006200081E0882339F08FEB80937C0181E0809317
:100630007D0105C08FEF80937C0110927D01D1DD9B
:1006400009C08FEF80937A0180937B0180937C01B6
:100650001092780110927F01809178012FEF829F94
:10066000C001112464E670E002D063BD87CF97FB20
:10067000072E16F4009406D077FD08D00BD007FCA7
:1006800005D03EF4909581959F4F089570956195A2
:100690007F4F0895AA1BBB1B51E107C0AA1FBB1FB8
:1006A000A617B70710F0A61BB70B881F991F5A95FE
:1006B000A9F780959095BC01CD01089591110895F9
:1006C00081568A5108F48052855808950F931F93DC
:1006D000CF93DF93CDB7DEB72E970FB6F894DEBF7A
:1006E0000FBECDBF0D891E8986E08C831A830983D6
:1006F0008FEF9FE79E838D83AE01475E5F4F6F89CB
:10070000788DCE01019610D0EF81F885E00FF11FB2
:1007100010822E960FB6F894DEBF0FBECDBFDF91CC
:10072000CF911F910F9108952F923F924F925F9218
:100730006F927F928F929F92AF92BF92CF92DF92F1
:10074000EF92FF920F931F93CF93DF93CDB7DEB756
:100750002B970FB6F894DEBF0FBECDBF6C017B01A7
:100760008A01FC0117821682838181FFBFC1CE01FD
:1007700001963C01F6019381F70193FD859193FF6A
:1007800081917F01882309F4ADC1853239F493FD4D
:10079000859193FF81917F01853221F4B60190E02C
:1007A000D6D1E8CF912C212C312CFFE1F315D8F0D4
:1007B0008B3279F038F4803279F08332A1F4232D32
:1007C00020611DC08D3261F0803369F4232D2160DA
:1007D00016C0832D8260382EE32DE4603E2E2AC0A1
:1007E000F32DF8601DC037FC2DC020ED280F2A30F6
:1007F00040F08E32B9F436FC75C1232D2064322EC0
:1008000019C036FE06C08AE0989E200D1124922E53
:1008100011C0EAE02E9E200D1124222EF32DF0624D
:100820003F2E08C08C3621F4832D8068382E02C0FC
:10083000883641F4F70193FD859193FF81917F0103
:100840008111B3CF982F9F7D9554933028F40C5F7E
:100850001F4F9FE399830DC0833631F0833771F0CA
:10086000833509F055C020C0F801808189830E5F6F
:100870001F4F88248394912C530112C02801F2E069
:100880004F0E511CF801A080B18036FE03C0692DC7
:1008900070E002C06FEF7FEFC5014ED14C018201C5
:1008A000F32DFF773F2E15C0280122E0420E511C88
:1008B000F801A080B18036FE03C0692D70E002C04F
:1008C0006FEF7FEFC5012DD14C01F32DF0683F2E66
:1008D000820133FC19C0822D90E088169906A0F49D
:1008E000B60180E290E033D12A94F5CFF50137FCD0
:1008F000859137FE81915F01B60190E028D12110EA
:100900002A9421E0821A91088114910479F7E1C0B8
:10091000843611F0893639F5F80137FE07C0608159
:100920007181828193810C5F1F4F08C0608171814A
:10093000072E000C880B990B0E5F1F4FF32DFF76CF
:100940003F2E97FF09C090958095709561957F4FD8
:100950008F4F9F4FF0683F2E2AE030E0A30133D144
:10096000882E861844C0853731F4232D2F7EB22E71
:100970002AE030E025C0932D997FB92E8F36C1F043
:1009800018F4883579F0AEC0803719F0883721F037
:10099000A9C0E92FE061BE2EB4FE0DC0FB2DF460AE
:1009A000BF2E09C034FE0AC0292F2660B22E06C011
:1009B00028E030E005C020E130E002C020E132E074
:1009C000F801B7FE07C060817181828193810C5F5D
:1009D0001F4F06C06081718180E090E00E5F1F4F65
:1009E000A301F1D0882E8618FB2DFF773F2E36FE0F
:1009F0000DC0232D2E7FA22E891458F434FE0BC077
:100A000032FC09C0832D8E7EA82E05C0B82CA32CE5
:100A100003C0B82C01C0B92CA4FE0FC0FE01E80D24
:100A2000F11D8081803321F49A2D997EA92E09C071
:100A3000A2FE06C0B394B39404C08A2D867809F050
:100A4000B394A3FC10C0A0FE06C0B21480F4280C1E
:100A5000922C9B180DC0B21458F4B60180E290E0BD
:100A600076D0B394F8CFB21418F42B1802C0982C97
:100A7000212CA4FE0FC0B60180E390E068D0A2FE56
:100A800016C0A1FC03C088E790E002C088E590E0B2
:100A9000B6010CC08A2D867851F0A1FE02C08BE20F
:100AA00001C080E2A7FC8DE2B60190E050D089142D
:100AB00030F4B60180E390E04AD09A94F8CF8A945B
:100AC000F301E80DF11D8081B60190E040D0811066
:100AD000F6CF222009F44ECEB60180E290E037D066
:100AE0002A94F7CFF6018681978102C08FEF9FEF9E
:100AF0002B960FB6F894DEBF0FBECDBFDF91CF911E
:100B00001F910F91FF90EF90DF90CF90BF90AF902B
:100B10009F908F907F906F905F904F903F902F901D
:100B20000895FC010590615070400110D8F7809540
:100B300090958E0F9F1F0895FC01615070400190A9
:100B40000110D8F7809590958E0F9F1F08950F93F1
:100B50001F93CF93DF93FB01238121FD03C08FEF10
:100B60009FEF2CC022FF16C046815781248135811A
:100B70004217530744F4A081B1819D012F5F3F4F7D
:100B8000318320838C93268137812F5F3F4F3783BA
:100B9000268314C08B01EC01FB010084F185E02D5C
:100BA0000995892BE1F6D80116968D919C9117979E
:100BB000019617969C938E931697CE01DF91CF9155
:100BC0001F910F910895FA01AA27283051F1203181
:100BD00081F1E8946F936E7F6E5F7F4F8F4F9F4FD1
:100BE000AF4FB1E03ED0B4E03CD0670F781F891F13
:100BF0009A1FA11D680F791F8A1F911DA11D6A0FE1
:100C0000711D811D911DA11D20D009F468943F9193
:100C10002AE0269F11243019305D3193DEF6CF0192
:100C20000895462F4770405D4193B3E00FD0C9F758
:100C3000F6CF462F4F70405D4A3318F0495D31FDC5
:100C40004052419302D0A9F7EACFB4E0A695979518
:100C5000879577956795BA95C9F7009761057105EE
:100C600008959B01AC010A2E069457954795379538
:100C70002795BA95C9F7620F731F841F951FA01D92
:060C80000895F894FFCF77
:100C86000D0A466F69207072656D69646120612086
:100C96007465636C613A092025630D0A000D0A53D9
:100CA600656E7469646F3A2025630D2056656C6F16
:100CB6006369646164653A2025640D0A000D0A457E
:100CC60072726F2C2074656E7465206465206E6F79
:060CD600766F0D0A00001C
:00000001FF
