S016000046756E63696F6E616D656E746F322E7372656386
S113000045C0000097C00000A4C00000B1C00000BB
S1130010BEC0000058C0000056C0000054C000001C
S113002052C0000050C000004EC000004CC0000090
S11300304AC0000048C0000046C000000DC20000D5
S113004042C0000040C000003EC000003CC00000B0
S11300503AC0000038C0000036C0000034C00000C0
S113006032C0000030C000002EC000002CC00000D0
S11300702AC0000028C0000026C0000024C00000E0
S113008022C0000020C000001EC0000011241FBEBA
S1130090CFEFD0E1DEBFCDBF11E0A0E0B1E0E8E3F7
S11300A0F7E000E00BBF02C007900D92AE30B1073D
S11300B0D9F721E0AEE0B1E001C01D92AD31B20745
S11300C0E1F79ED137C39CCF0F931F932F93369A9A
S11300D006B10078003014B125B110931B012093B0
S11300E01C010F911F912F91089580EC81BB8FEF1C
S11300F084BB109261008093150180931601809354
S1130100170180EE87BB80E288BB8AEA80936A008D
S11301108AE08ABF8FE089BF9DE491BF83BF87B720
S1130120826087BF13BC83E685BD17B887E886B9AC
S1130130789408951F920F920FB60F9211248F9303
S113014081E080931A018F910F900FBE0F901F9042
S113015018951F920F920FB60F9211248F9382E07D
S113016080931A018F910F900FBE0F901F901895D6
S11301701F920F920FB60F9211248F9383E08093F6
S11301801A018F910F900FBE0F901F9018951F9218
S11301900F920FB60F9211248F9384E080931A016B
S11301A08F910F900FBE0F901F901895C59B10C094
S11301B088B3806688BB2FEF89E698E121508040A0
S11301C09040E1F700C0000088B38F7D88BB08959C
S11301D088B3806688BB2FEF89E698E12150804080
S11301E09040E1F700C0000088B38F7B88BB08957E
S11301F081EA8093140180B38F6D8F3D09F469D037
S113020080911A018230D9F018F4813039F054C049
S1130210833031F1843009F446C04EC082E98093C2
S1130220150184EA8093160180911801813019F434
S11302308FEB8093170189E1809313013DC080EC1B
S11302408093150188EF8093160180911801813005
S113025019F48FEB8093170186E4809313012CC06B
S113026080911901882341F110921901809117019D
S11302708F3F31F480911801882321F080E003C07E
S113028080E001C081E0882339F08FEB809317016F
S113029081E08093180105C08FEF809317011092BD
S11302A0180184DF09C08FEF809315018093160134
S11302B0809317011092130110921A018091130177
S11302C02FEF829FC001112464E670E00CD263BD5D
S11302D08FCF88E88093140180B38F6E8F3E09F42A
S11302E087DFF2DE8FE39CE90197F1F700C000009D
S11302F080911801813011F48093120160911C01E6
S113030070E0762F662780911B01680F711D709332
S113031011016093100170930F0160930E01611538
S1130320710521F06F3F93E0790749F480E98093E8
S113033015018093160184E68093130156C0623E32
S113034021E07207B8F481EE91E09C01261B370B83
S1130350B90180E090E0D6D02FEC37EF43E55EE3BF
S11303605FD1A4D0609313018091120181E0809346
S1130370120118C06F3132E0730718F410921301A0
S113038011C06E51724080E090E0BCD024EA30E7A6
S11303904DE35EE345D18AD060931301809112014D
S11303A010921201A0911301EDECAE9F812D112446
S11303B0869586958695880F982F990F990F890FA2
S11303C0A81BB0E0A050BF4F8C9180931501809181
S11303D013018E9FE12D1124E695E695E695F0E054
S11303E0E050FF4F808180931601809113012FEF1D
S11303F0829FC001112464E670E075D163BD69CFAA
S113040074DEF6DE80EC82BB8091150185BB8FE93A
S11304109FE00197F1F700C0000080E882BB809163
S1130420160185BB8FE99FE00197F1F700C000003A
S113043080E482BB80911301882349F080911701E5
S113044085BB8FE99FE00197F1F700C0000012BA65
S11304508091140185BB08951F920F920FB60F92DD
S113046011240BB60F922F933F934F935F936F9387
S11304707F938F939F93AF93BF93EF93FF93C2DFC9
S113048081E080931901FF91EF91BF91AF919F910A
S11304908F917F916F915F914F913F912F910F9029
S11304A00BBE0F900FBE0F901F90189598D088F038
S11304B09F5790F0B92F9927B751A0F0D1F0660F4C
S11304C0771F881F991F1AF0BA95C9F712C0B13067
S11304D081F09FD0B1E008959CC0672F782F8827C2
S11304E0B85F39F0B93FCCF3869577956795B395A6
S11304F0D9F73EF490958095709561957F4F8F4F15
S11305009F4F0895E89409C097FB3EF49095809519
S1130510709561957F4F8F4F9F4F9923A9F0F92FC5
S113052096E9BB279395F695879577956795B79543
S1130530F111F8CFFAF4BB0F11F460FF1BC06F5F29
S11305407F4F8F4F9F4F16C0882311F096E911C03B
S1130550772321F09EE8872F762F05C0662371F05C
S113056096E8862F70E060E02AF09A95660F771F70
S1130570881FDAF7880F9695879597F9089597F964
S11305809F6780E870E060E008959FEF80EC089535
S113059000240A941616170618060906089500245E
S11305A00A9412161306140605060895092E0394D8
S11305B0000C11F4882352F0BB0F40F4BF2B11F44C
S11305C060FF04C06F5F7F4F8F4F9F4F089557FDAB
S11305D09058440F551F59F05F3F71F04795880FAD
S11305E097FB991F61F09F3F79F087950895121644
S11305F013061406551FF2CF4695F1DF08C01616F0
S113060017061806991FF1CF8695710561050894A0
S11306100895E894BB2766277727CB0197F90895B7
S11306200BD0C4CFB5DF28F0BADF18F0952309F05A
S1130630A6CFABCF1124EECFCADFA0F3959FD1F3A1
S1130640950F50E0551F629FF001729FBB27F00D7C
S1130650B11D639FAA27F00DB11DAA1F649F6627D1
S1130660B00DA11D661F829F2227B00DA11D621F20
S1130670739FB00DA11D621F839FA00D611D221FDA
S1130680749F3327A00D611D231F849F600D211DBE
S1130690822F762F6A2F11249F5750408AF0E1F061
S11306A088234AF0EE0FFF1FBB1F661F771F881FAA
S11306B091505040A9F79E3F510570F060CFAACFEA
S11306C05F3FECF3983EDCF3869577956795B79595
S11306D0F795E7959F5FC1F7FE2B880F911D9695BF
S11306E0879597F9089597FB072E16F4009406D082
S11306F077FD08D00BD007FC05D03EF4909581958A
S11307009F4F0895709561957F4F0895AA1BBB1B59
S113071051E107C0AA1FBB1FA617B70710F0A61BFD
S1130720B70B881F991F5A95A9F780959095BC011E
S10B0730CD010895F894FFCFF8
S1110738C0F9A4B0999282F88090BFFF7000BF
S9030000FC
