:020000020000FC
:1000000000270ABB0FEF04BB05BB0FEF0DBF00E1DC
:100010000EBF60E070E0DFEFC89B01C0FDCFD0FFF6
:100020000E9434007130B9F00EEF05BB0E9434001D
:10003000D0E0662777270894001F05BBAF990C9482
:10004000160061E0ECCF0E943400723091F30FE7AC
:1000500005BB0E943400662777270894079505BBE7
:10006000A899F7CF62E0EFCF2F933F934F9342E5EC
:100070003FEF2EEF2A95F1F7613069F0623041F0E1
:100080003A95B9F74A95A1F74F913F912F9108956D
:0C009000C89B72E0F5CFCD9B71E0F2CF71
:00000001FF
