S013000050726F6A65637430315F432E7372656337
S113000045C0000082C000008FC000009CC00000FA
S1130010A9C0000058C0000056C0000054C0000031
S113002052C0000050C000004EC000004CC0000090
S11300304AC0000048C0000046C000003EC10000A5
S113004042C0000040C000003EC000003CC00000B0
S11300503AC0000038C0000036C0000034C00000C0
S113006032C0000030C000002EC000002CC00000D0
S11300702AC0000028C0000026C0000024C00000E0
S113008022C0000020C000001EC0000011241FBEBA
S1130090CFEFD0E1DEBFCDBF11E0A0E0B1E0E0E6FC
S11300A0F3E000E00BBF02C007900D92A030B1074F
S11300B0D9F721E0A0E0B1E001C01D92A630B2075B
S11300C0E1F77DD04BC19CCF80EC81BB8FE382BB39
S11300D08FEF84BB85BB80930501809302018093DD
S11300E0000180EE87BB80E288BB8AEA80936A00C5
S11300F08FE089BF9DE491BF83BF87B7826087BFCC
S113010013BC83E685BD789408951F920F920FB6B1
S11301100F9211248F9381E0809303018F910F90AC
S11301200FBE0F901F9018951F920F920FB60F924B
S113013011248F9382E0809303018F910F900FBE5F
S11301400F901F9018951F920F920FB60F921124C3
S11301508F9383E0809303018F910F900FBE0F90D4
S11301601F9018951F920F920FB60F9211248F9320
S113017084E0809303018F910F900FBE0F901F9026
S11301801895C59B0EC088B3806688BB2FEF89E69F
S113019098E1215080409040E1F700C00000C598EC
S11301A0089588B3806688BB2FEF89E698E12150D3
S11301B080409040E1F700C00000C698089584DFB5
S11301C00F2EF0ECBF2EF02D0F2EF8EFCF2EF02DCA
S11301D00F2EF6E4DF2EF02DCFEF0F2EFFEBAF2E18
S11301E0F02D0F2EF2E9EF2EF02D0F2EF4EAFF2E54
S11301F0F02DD9E104E610E080910301823081F012
S113020018F4813031F02CC0833089F0843001F14E
S113021027C0E0920501F0920201D093040120C0AE
S1130220B0920501C0920201D092040119C08091DC
S113023001018823A9F010920101809100018F3FF0
S113024019F4A092000102C0C09300019ADF08C013
S1130250C0930501C0930201C093000110920401F0
S11302601092030180910401C89FC0011124B801B8
S11302704ED063BDC1CF80EC82BB8091050185BBAC
S11302808FE99FE00197F1F700C0000080E882BB8E
S11302908091020185BB8FE99FE00197F1F700C0CF
S11302A0000080E482BB8091000185BB8FE99FE060
S11302B00197F1F700C0000008951F920F920FB646
S11302C00F9211240BB60F922F933F934F935F938A
S11302D06F937F938F939F93AF93BF93EF93FF930A
S11302E0CADF81E080930101FF91EF91BF91AF914B
S11302F09F918F917F916F915F914F913F912F913A
S11303000F900BBE0F900FBE0F901F90189597FB88
S1130310072E16F4009406D077FD08D00BD007FC06
S113032005D03EF4909581959F4F08957095619501
S11303307F4F0895AA1BBB1B51E107C0AA1FBB1F17
S1130340A617B70710F0A61BB70B881F991F5A955D
S1130350A9F780959095BC01CD010895F894FFCF3D
S9030000FC
